{
  "_format": "hh-sol-artifact-1",
  "contractName": "ClaimFaucetFactory",
  "sourceName": "contracts/ClaimFaucetFactory.sol",
  "abi": [
    {
      "inputs": [
        {
          "internalType": "address",
          "name": "_claimFaucet",
          "type": "address"
        }
      ],
      "name": "claimFaucetFromContract",
      "outputs": [],
      "stateMutability": "nonpayable",
      "type": "function"
    },
    {
      "inputs": [
        {
          "internalType": "string",
          "name": "_name",
          "type": "string"
        },
        {
          "internalType": "string",
          "name": "_symbol",
          "type": "string"
        }
      ],
      "name": "deployClaimFaucet",
      "outputs": [
        {
          "internalType": "address",
          "name": "contractAddress_",
          "type": "address"
        }
      ],
      "stateMutability": "nonpayable",
      "type": "function"
    },
    {
      "inputs": [],
      "name": "getAllContractDeployed",
      "outputs": [
        {
          "components": [
            {
              "internalType": "address",
              "name": "deployer",
              "type": "address"
            },
            {
              "internalType": "address",
              "name": "deployedContract",
              "type": "address"
            }
          ],
          "internalType": "struct ClaimFaucetFactory.DeployedContractInfo[]",
          "name": "",
          "type": "tuple[]"
        }
      ],
      "stateMutability": "view",
      "type": "function"
    },
    {
      "inputs": [
        {
          "internalType": "address",
          "name": "_claimFaucet",
          "type": "address"
        }
      ],
      "name": "getBalanceFromDeployedContract",
      "outputs": [
        {
          "internalType": "uint256",
          "name": "",
          "type": "uint256"
        }
      ],
      "stateMutability": "view",
      "type": "function"
    },
    {
      "inputs": [
        {
          "internalType": "address",
          "name": "_claimFaucet",
          "type": "address"
        }
      ],
      "name": "getInfoFromContract",
      "outputs": [
        {
          "internalType": "string",
          "name": "",
          "type": "string"
        },
        {
          "internalType": "string",
          "name": "",
          "type": "string"
        }
      ],
      "stateMutability": "view",
      "type": "function"
    },
    {
      "inputs": [],
      "name": "getLengthOfDeployedContracts",
      "outputs": [
        {
          "internalType": "uint256",
          "name": "",
          "type": "uint256"
        }
      ],
      "stateMutability": "view",
      "type": "function"
    },
    {
      "inputs": [
        {
          "internalType": "uint8",
          "name": "_index",
          "type": "uint8"
        }
      ],
      "name": "getUserDeployedContractByIndex",
      "outputs": [
        {
          "internalType": "address",
          "name": "deployer_",
          "type": "address"
        },
        {
          "internalType": "address",
          "name": "deployedContract_",
          "type": "address"
        }
      ],
      "stateMutability": "view",
      "type": "function"
    },
    {
      "inputs": [],
      "name": "getUserDeployedContracts",
      "outputs": [
        {
          "components": [
            {
              "internalType": "address",
              "name": "deployer",
              "type": "address"
            },
            {
              "internalType": "address",
              "name": "deployedContract",
              "type": "address"
            }
          ],
          "internalType": "struct ClaimFaucetFactory.DeployedContractInfo[]",
          "name": "",
          "type": "tuple[]"
        }
      ],
      "stateMutability": "view",
      "type": "function"
    }
  ],
  "bytecode": "0x6080604052348015600f57600080fd5b506130248061001f6000396000f3fe608060405234801561001057600080fd5b50600436106100885760003560e01c80638ff2dd861161005b5780638ff2dd861461012a578063a957112d14610148578063b0d90db914610164578063be3238251461019557610088565b8063139b28df1461008d57806317d08565146100bd5780635aefdc3b146100db5780637b0478071461010c575b600080fd5b6100a760048036038101906100a29190610b72565b6101c5565b6040516100b49190610bb8565b60405180910390f35b6100c561024d565b6040516100d29190610bb8565b60405180910390f35b6100f560048036038101906100f09190610c0c565b61025f565b604051610103929190610c48565b60405180910390f35b610114610418565b6040516101219190610d5e565b60405180910390f35b610132610523565b60405161013f9190610d5e565b60405180910390f35b610162600480360381019061015d9190610b72565b61066a565b005b61017e60048036038101906101799190610b72565b6106d8565b60405161018c929190610e10565b60405180910390f35b6101af60048036038101906101aa9190610f7c565b6107cc565b6040516101bc9190610ff4565b60405180910390f35b6000808273ffffffffffffffffffffffffffffffffffffffff166370a08231336040518263ffffffff1660e01b81526004016102019190610ff4565b602060405180830381865afa15801561021e573d6000803e3d6000fd5b505050506040513d601f19601f82011682018060405250810190610242919061103b565b905080915050919050565b60008060018054905090508091505090565b6000806000803373ffffffffffffffffffffffffffffffffffffffff1673ffffffffffffffffffffffffffffffffffffffff168152602001908152602001600020805490508360ff16106102e8576040517f08c379a00000000000000000000000000000000000000000000000000000000081526004016102df906110b4565b60405180910390fd5b60008060003373ffffffffffffffffffffffffffffffffffffffff1673ffffffffffffffffffffffffffffffffffffffff1681526020019081526020016000208460ff168154811061033d5761033c6110d4565b5b90600052602060002090600202016040518060400160405290816000820160009054906101000a900473ffffffffffffffffffffffffffffffffffffffff1673ffffffffffffffffffffffffffffffffffffffff1673ffffffffffffffffffffffffffffffffffffffff1681526020016001820160009054906101000a900473ffffffffffffffffffffffffffffffffffffffff1673ffffffffffffffffffffffffffffffffffffffff1673ffffffffffffffffffffffffffffffffffffffff16815250509050806000015192508060200151915050915091565b60606001805480602002602001604051908101604052809291908181526020016000905b8282101561051a57838290600052602060002090600202016040518060400160405290816000820160009054906101000a900473ffffffffffffffffffffffffffffffffffffffff1673ffffffffffffffffffffffffffffffffffffffff1673ffffffffffffffffffffffffffffffffffffffff1681526020016001820160009054906101000a900473ffffffffffffffffffffffffffffffffffffffff1673ffffffffffffffffffffffffffffffffffffffff1673ffffffffffffffffffffffffffffffffffffffff16815250508152602001906001019061043c565b50505050905090565b60606000803373ffffffffffffffffffffffffffffffffffffffff1673ffffffffffffffffffffffffffffffffffffffff168152602001908152602001600020805480602002602001604051908101604052809291908181526020016000905b8282101561066157838290600052602060002090600202016040518060400160405290816000820160009054906101000a900473ffffffffffffffffffffffffffffffffffffffff1673ffffffffffffffffffffffffffffffffffffffff1673ffffffffffffffffffffffffffffffffffffffff1681526020016001820160009054906101000a900473ffffffffffffffffffffffffffffffffffffffff1673ffffffffffffffffffffffffffffffffffffffff1673ffffffffffffffffffffffffffffffffffffffff168152505081526020019060010190610583565b50505050905090565b8073ffffffffffffffffffffffffffffffffffffffff166332f289cf336040518263ffffffff1660e01b81526004016106a39190610ff4565b600060405180830381600087803b1580156106bd57600080fd5b505af11580156106d1573d6000803e3d6000fd5b5050505050565b6060808273ffffffffffffffffffffffffffffffffffffffff1663862b092b6040518163ffffffff1660e01b8152600401600060405180830381865afa158015610726573d6000803e3d6000fd5b505050506040513d6000823e3d601f19601f8201168201806040525081019061074f9190611173565b8373ffffffffffffffffffffffffffffffffffffffff1663150704016040518163ffffffff1660e01b8152600401600060405180830381865afa15801561079a573d6000803e3d6000fd5b505050506040513d6000823e3d601f19601f820116820180604052508101906107c39190611173565b91509150915091565b60008073ffffffffffffffffffffffffffffffffffffffff163373ffffffffffffffffffffffffffffffffffffffff160361083c576040517f08c379a000000000000000000000000000000000000000000000000000000000815260040161083390611208565b60405180910390fd5b6000838360405161084c90610aad565b610857929190610e10565b604051809103906000f080158015610873573d6000803e3d6000fd5b509050809150610881610aba565b33816000019073ffffffffffffffffffffffffffffffffffffffff16908173ffffffffffffffffffffffffffffffffffffffff168152505081816020019073ffffffffffffffffffffffffffffffffffffffff16908173ffffffffffffffffffffffffffffffffffffffff16815250506000803373ffffffffffffffffffffffffffffffffffffffff1673ffffffffffffffffffffffffffffffffffffffff16815260200190815260200160002081908060018154018082558091505060019003906000526020600020906002020160009091909190915060008201518160000160006101000a81548173ffffffffffffffffffffffffffffffffffffffff021916908373ffffffffffffffffffffffffffffffffffffffff16021790555060208201518160010160006101000a81548173ffffffffffffffffffffffffffffffffffffffff021916908373ffffffffffffffffffffffffffffffffffffffff1602179055505050600181908060018154018082558091505060019003906000526020600020906002020160009091909190915060008201518160000160006101000a81548173ffffffffffffffffffffffffffffffffffffffff021916908373ffffffffffffffffffffffffffffffffffffffff16021790555060208201518160010160006101000a81548173ffffffffffffffffffffffffffffffffffffffff021916908373ffffffffffffffffffffffffffffffffffffffff1602179055505050505092915050565b611dc68061122983390190565b6040518060400160405280600073ffffffffffffffffffffffffffffffffffffffff168152602001600073ffffffffffffffffffffffffffffffffffffffff1681525090565b6000604051905090565b600080fd5b600080fd5b600073ffffffffffffffffffffffffffffffffffffffff82169050919050565b6000610b3f82610b14565b9050919050565b610b4f81610b34565b8114610b5a57600080fd5b50565b600081359050610b6c81610b46565b92915050565b600060208284031215610b8857610b87610b0a565b5b6000610b9684828501610b5d565b91505092915050565b6000819050919050565b610bb281610b9f565b82525050565b6000602082019050610bcd6000830184610ba9565b92915050565b600060ff82169050919050565b610be981610bd3565b8114610bf457600080fd5b50565b600081359050610c0681610be0565b92915050565b600060208284031215610c2257610c21610b0a565b5b6000610c3084828501610bf7565b91505092915050565b610c4281610b34565b82525050565b6000604082019050610c5d6000830185610c39565b610c6a6020830184610c39565b9392505050565b600081519050919050565b600082825260208201905092915050565b6000819050602082019050919050565b610ca681610b34565b82525050565b604082016000820151610cc26000850182610c9d565b506020820151610cd56020850182610c9d565b50505050565b6000610ce78383610cac565b60408301905092915050565b6000602082019050919050565b6000610d0b82610c71565b610d158185610c7c565b9350610d2083610c8d565b8060005b83811015610d51578151610d388882610cdb565b9750610d4383610cf3565b925050600181019050610d24565b5085935050505092915050565b60006020820190508181036000830152610d788184610d00565b905092915050565b600081519050919050565b600082825260208201905092915050565b60005b83811015610dba578082015181840152602081019050610d9f565b60008484015250505050565b6000601f19601f8301169050919050565b6000610de282610d80565b610dec8185610d8b565b9350610dfc818560208601610d9c565b610e0581610dc6565b840191505092915050565b60006040820190508181036000830152610e2a8185610dd7565b90508181036020830152610e3e8184610dd7565b90509392505050565b600080fd5b600080fd5b7f4e487b7100000000000000000000000000000000000000000000000000000000600052604160045260246000fd5b610e8982610dc6565b810181811067ffffffffffffffff82111715610ea857610ea7610e51565b5b80604052505050565b6000610ebb610b00565b9050610ec78282610e80565b919050565b600067ffffffffffffffff821115610ee757610ee6610e51565b5b610ef082610dc6565b9050602081019050919050565b82818337600083830152505050565b6000610f1f610f1a84610ecc565b610eb1565b905082815260208101848484011115610f3b57610f3a610e4c565b5b610f46848285610efd565b509392505050565b600082601f830112610f6357610f62610e47565b5b8135610f73848260208601610f0c565b91505092915050565b60008060408385031215610f9357610f92610b0a565b5b600083013567ffffffffffffffff811115610fb157610fb0610b0f565b5b610fbd85828601610f4e565b925050602083013567ffffffffffffffff811115610fde57610fdd610b0f565b5b610fea85828601610f4e565b9150509250929050565b60006020820190506110096000830184610c39565b92915050565b61101881610b9f565b811461102357600080fd5b50565b6000815190506110358161100f565b92915050565b60006020828403121561105157611050610b0a565b5b600061105f84828501611026565b91505092915050565b7f4f7574206f6620626f756e640000000000000000000000000000000000000000600082015250565b600061109e600c83610d8b565b91506110a982611068565b602082019050919050565b600060208201905081810360008301526110cd81611091565b9050919050565b7f4e487b7100000000000000000000000000000000000000000000000000000000600052603260045260246000fd5b600061111661111184610ecc565b610eb1565b90508281526020810184848401111561113257611131610e4c565b5b61113d848285610d9c565b509392505050565b600082601f83011261115a57611159610e47565b5b815161116a848260208601611103565b91505092915050565b60006020828403121561118957611188610b0a565b5b600082015167ffffffffffffffff8111156111a7576111a6610b0f565b5b6111b384828501611145565b91505092915050565b7f5a65726f2041646472657373206e6f7420616c6c6f7765640000000000000000600082015250565b60006111f2601883610d8b565b91506111fd826111bc565b602082019050919050565b60006020820190508181036000830152611221816111e5565b905091905056fe608060405234801561001057600080fd5b50604051611dc6380380611dc68339818101604052810190610032919061036d565b818181600090816100439190610606565b5080600190816100539190610606565b5033600360006101000a81548173ffffffffffffffffffffffffffffffffffffffff021916908373ffffffffffffffffffffffffffffffffffffffff1602179055506100ca620f4240600360009054906101000a900473ffffffffffffffffffffffffffffffffffffffff166100d360201b60201c565b505050506107a7565b6000670de0b6b3a7640000836100e99190610707565b905080600460008473ffffffffffffffffffffffffffffffffffffffff1673ffffffffffffffffffffffffffffffffffffffff168152602001908152602001600020546101369190610749565b600460008473ffffffffffffffffffffffffffffffffffffffff1673ffffffffffffffffffffffffffffffffffffffff16815260200190815260200160002081905550806002546101879190610749565b6002819055508173ffffffffffffffffffffffffffffffffffffffff16600073ffffffffffffffffffffffffffffffffffffffff167fddf252ad1be2c89b69c2b068fc378daa952ba7f163c4a11628f55a4df523b3ef836040516101eb919061078c565b60405180910390a3505050565b6000604051905090565b600080fd5b600080fd5b600080fd5b600080fd5b6000601f19601f8301169050919050565b7f4e487b7100000000000000000000000000000000000000000000000000000000600052604160045260246000fd5b61025f82610216565b810181811067ffffffffffffffff8211171561027e5761027d610227565b5b80604052505050565b60006102916101f8565b905061029d8282610256565b919050565b600067ffffffffffffffff8211156102bd576102bc610227565b5b6102c682610216565b9050602081019050919050565b60005b838110156102f15780820151818401526020810190506102d6565b60008484015250505050565b600061031061030b846102a2565b610287565b90508281526020810184848401111561032c5761032b610211565b5b6103378482856102d3565b509392505050565b600082601f8301126103545761035361020c565b5b81516103648482602086016102fd565b91505092915050565b6000806040838503121561038457610383610202565b5b600083015167ffffffffffffffff8111156103a2576103a1610207565b5b6103ae8582860161033f565b925050602083015167ffffffffffffffff8111156103cf576103ce610207565b5b6103db8582860161033f565b9150509250929050565b600081519050919050565b7f4e487b7100000000000000000000000000000000000000000000000000000000600052602260045260246000fd5b6000600282049050600182168061043757607f821691505b60208210810361044a576104496103f0565b5b50919050565b60008190508160005260206000209050919050565b60006020601f8301049050919050565b600082821b905092915050565b6000600883026104b27fffffffffffffffffffffffffffffffffffffffffffffffffffffffffffffffff82610475565b6104bc8683610475565b95508019841693508086168417925050509392505050565b6000819050919050565b6000819050919050565b60006105036104fe6104f9846104d4565b6104de565b6104d4565b9050919050565b6000819050919050565b61051d836104e8565b6105316105298261050a565b848454610482565b825550505050565b600090565b610546610539565b610551818484610514565b505050565b5b818110156105755761056a60008261053e565b600181019050610557565b5050565b601f8211156105ba5761058b81610450565b61059484610465565b810160208510156105a3578190505b6105b76105af85610465565b830182610556565b50505b505050565b600082821c905092915050565b60006105dd600019846008026105bf565b1980831691505092915050565b60006105f683836105cc565b9150826002028217905092915050565b61060f826103e5565b67ffffffffffffffff81111561062857610627610227565b5b610632825461041f565b61063d828285610579565b600060209050601f831160018114610670576000841561065e578287015190505b61066885826105ea565b8655506106d0565b601f19841661067e86610450565b60005b828110156106a657848901518255600182019150602085019450602081019050610681565b868310156106c357848901516106bf601f8916826105cc565b8355505b6001600288020188555050505b505050505050565b7f4e487b7100000000000000000000000000000000000000000000000000000000600052601160045260246000fd5b6000610712826104d4565b915061071d836104d4565b925082820261072b816104d4565b91508282048414831517610742576107416106d8565b5b5092915050565b6000610754826104d4565b915061075f836104d4565b9250828201905080821115610777576107766106d8565b5b92915050565b610786816104d4565b82525050565b60006020820190506107a1600083018461077d565b92915050565b611610806107b66000396000f3fe608060405234801561001057600080fd5b50600436106100a95760003560e01c806376809ce31161007157806376809ce314610150578063862b092b1461016e578063a9059cbb1461018c578063c4e41b22146101a8578063dd62ed3e146101c6578063e741bec3146101f6576100a9565b8063095ea7b3146100ae57806315070401146100ca57806323b872dd146100e857806332f289cf1461010457806370a0823114610120575b600080fd5b6100c860048036038101906100c39190611023565b610214565b005b6100d261037f565b6040516100df91906110f3565b60405180910390f35b61010260048036038101906100fd9190611115565b610411565b005b61011e60048036038101906101199190611168565b6107dd565b005b61013a60048036038101906101359190611168565b610a93565b60405161014791906111a4565b60405180910390f35b610158610adc565b60405161016591906111db565b60405180910390f35b610176610ae5565b60405161018391906110f3565b60405180910390f35b6101a660048036038101906101a19190611023565b610b77565b005b6101b0610db5565b6040516101bd91906111a4565b60405180910390f35b6101e060048036038101906101db91906111f6565b610dbf565b6040516101ed91906111a4565b60405180910390f35b6101fe610e46565b60405161020b91906111a4565b60405180910390f35b80600460003373ffffffffffffffffffffffffffffffffffffffff1673ffffffffffffffffffffffffffffffffffffffff1681526020019081526020016000205411610295576040517f08c379a000000000000000000000000000000000000000000000000000000000815260040161028c90611282565b60405180910390fd5b80600560003373ffffffffffffffffffffffffffffffffffffffff1673ffffffffffffffffffffffffffffffffffffffff16815260200190815260200160002060008473ffffffffffffffffffffffffffffffffffffffff1673ffffffffffffffffffffffffffffffffffffffff168152602001908152602001600020819055508173ffffffffffffffffffffffffffffffffffffffff163373ffffffffffffffffffffffffffffffffffffffff167f8c5be1e5ebec7d5bd14f71427d1e84f3dd0314c0f7b2291e5b200ac8c7c3b9258360405161037391906111a4565b60405180910390a35050565b60606001805461038e906112d1565b80601f01602080910402602001604051908101604052809291908181526020018280546103ba906112d1565b80156104075780601f106103dc57610100808354040283529160200191610407565b820191906000526020600020905b8154815290600101906020018083116103ea57829003601f168201915b5050505050905090565b600073ffffffffffffffffffffffffffffffffffffffff168373ffffffffffffffffffffffffffffffffffffffff1603610480576040517f08c379a00000000000000000000000000000000000000000000000000000000081526004016104779061134e565b60405180910390fd5b600073ffffffffffffffffffffffffffffffffffffffff168273ffffffffffffffffffffffffffffffffffffffff16036104ef576040517f08c379a00000000000000000000000000000000000000000000000000000000081526004016104e69061134e565b60405180910390fd5b600460008473ffffffffffffffffffffffffffffffffffffffff1673ffffffffffffffffffffffffffffffffffffffff1681526020019081526020016000205481111561053b57600080fd5b600560008473ffffffffffffffffffffffffffffffffffffffff1673ffffffffffffffffffffffffffffffffffffffff16815260200190815260200160002060003373ffffffffffffffffffffffffffffffffffffffff1673ffffffffffffffffffffffffffffffffffffffff168152602001908152602001600020548111156105c457600080fd5b80600460008573ffffffffffffffffffffffffffffffffffffffff1673ffffffffffffffffffffffffffffffffffffffff1681526020019081526020016000205461060f919061139d565b600460008573ffffffffffffffffffffffffffffffffffffffff1673ffffffffffffffffffffffffffffffffffffffff1681526020019081526020016000208190555080600560008573ffffffffffffffffffffffffffffffffffffffff1673ffffffffffffffffffffffffffffffffffffffff16815260200190815260200160002060003373ffffffffffffffffffffffffffffffffffffffff1673ffffffffffffffffffffffffffffffffffffffff16815260200190815260200160002060008282546106de919061139d565b9250508190555080600460008473ffffffffffffffffffffffffffffffffffffffff1673ffffffffffffffffffffffffffffffffffffffff1681526020019081526020016000205461073091906113d1565b600460008473ffffffffffffffffffffffffffffffffffffffff1673ffffffffffffffffffffffffffffffffffffffff168152602001908152602001600020819055508173ffffffffffffffffffffffffffffffffffffffff168373ffffffffffffffffffffffffffffffffffffffff167fddf252ad1be2c89b69c2b068fc378daa952ba7f163c4a11628f55a4df523b3ef836040516107d091906111a4565b60405180910390a3505050565b600073ffffffffffffffffffffffffffffffffffffffff168173ffffffffffffffffffffffffffffffffffffffff160361084c576040517f08c379a000000000000000000000000000000000000000000000000000000000815260040161084390611451565b60405180910390fd5b600760008273ffffffffffffffffffffffffffffffffffffffff1673ffffffffffffffffffffffffffffffffffffffff16815260200190815260200160002060009054906101000a900460ff16156109bd576000600660008373ffffffffffffffffffffffffffffffffffffffff1673ffffffffffffffffffffffffffffffffffffffff1681526020019081526020016000209050426201518082600001546108f591906113d1565b1015610936576040517f08c379a000000000000000000000000000000000000000000000000000000000815260040161092d906114bd565b60405180910390fd5b428160000181905550600a81600101600082825461095491906113d1565b92505081905550610966600a83610e4b565b8173ffffffffffffffffffffffffffffffffffffffff167f9cb9d943e6592935c9a9b6a2e08e875a8b88cbf67f2a2bd6d36294c3f94297cb600a426040516109af9291906114dd565b60405180910390a250610a90565b6001600760008373ffffffffffffffffffffffffffffffffffffffff1673ffffffffffffffffffffffffffffffffffffffff16815260200190815260200160002060006101000a81548160ff021916908315150217905550610a20600a82610e4b565b610a28610f70565b42816000018181525050600a8160200181815250508173ffffffffffffffffffffffffffffffffffffffff167f9cb9d943e6592935c9a9b6a2e08e875a8b88cbf67f2a2bd6d36294c3f94297cb600a42604051610a869291906114dd565b60405180910390a2505b50565b6000600460008373ffffffffffffffffffffffffffffffffffffffff1673ffffffffffffffffffffffffffffffffffffffff168152602001908152602001600020549050919050565b60006012905090565b606060008054610af4906112d1565b80601f0160208091040260200160405190810160405280929190818152602001828054610b20906112d1565b8015610b6d5780601f10610b4257610100808354040283529160200191610b6d565b820191906000526020600020905b815481529060010190602001808311610b5057829003601f168201915b5050505050905090565b600073ffffffffffffffffffffffffffffffffffffffff168273ffffffffffffffffffffffffffffffffffffffff1603610be6576040517f08c379a0000000000000000000000000000000000000000000000000000000008152600401610bdd9061134e565b60405180910390fd5b600460003373ffffffffffffffffffffffffffffffffffffffff1673ffffffffffffffffffffffffffffffffffffffff16815260200190815260200160002054811115610c68576040517f08c379a0000000000000000000000000000000000000000000000000000000008152600401610c5f90611578565b60405180910390fd5b80600460003373ffffffffffffffffffffffffffffffffffffffff1673ffffffffffffffffffffffffffffffffffffffff1681526020019081526020016000206000828254610cb7919061139d565b9250508190555080600460008473ffffffffffffffffffffffffffffffffffffffff1673ffffffffffffffffffffffffffffffffffffffff16815260200190815260200160002054610d0991906113d1565b600460008473ffffffffffffffffffffffffffffffffffffffff1673ffffffffffffffffffffffffffffffffffffffff168152602001908152602001600020819055508173ffffffffffffffffffffffffffffffffffffffff163373ffffffffffffffffffffffffffffffffffffffff167fddf252ad1be2c89b69c2b068fc378daa952ba7f163c4a11628f55a4df523b3ef83604051610da991906111a4565b60405180910390a35050565b6000600254905090565b6000600560008473ffffffffffffffffffffffffffffffffffffffff1673ffffffffffffffffffffffffffffffffffffffff16815260200190815260200160002060008373ffffffffffffffffffffffffffffffffffffffff1673ffffffffffffffffffffffffffffffffffffffff16815260200190815260200160002054905092915050565b600a81565b6000670de0b6b3a764000083610e619190611598565b905080600460008473ffffffffffffffffffffffffffffffffffffffff1673ffffffffffffffffffffffffffffffffffffffff16815260200190815260200160002054610eae91906113d1565b600460008473ffffffffffffffffffffffffffffffffffffffff1673ffffffffffffffffffffffffffffffffffffffff1681526020019081526020016000208190555080600254610eff91906113d1565b6002819055508173ffffffffffffffffffffffffffffffffffffffff16600073ffffffffffffffffffffffffffffffffffffffff167fddf252ad1be2c89b69c2b068fc378daa952ba7f163c4a11628f55a4df523b3ef83604051610f6391906111a4565b60405180910390a3505050565b604051806040016040528060008152602001600081525090565b600080fd5b600073ffffffffffffffffffffffffffffffffffffffff82169050919050565b6000610fba82610f8f565b9050919050565b610fca81610faf565b8114610fd557600080fd5b50565b600081359050610fe781610fc1565b92915050565b6000819050919050565b61100081610fed565b811461100b57600080fd5b50565b60008135905061101d81610ff7565b92915050565b6000806040838503121561103a57611039610f8a565b5b600061104885828601610fd8565b92505060206110598582860161100e565b9150509250929050565b600081519050919050565b600082825260208201905092915050565b60005b8381101561109d578082015181840152602081019050611082565b60008484015250505050565b6000601f19601f8301169050919050565b60006110c582611063565b6110cf818561106e565b93506110df81856020860161107f565b6110e8816110a9565b840191505092915050565b6000602082019050818103600083015261110d81846110ba565b905092915050565b60008060006060848603121561112e5761112d610f8a565b5b600061113c86828701610fd8565b935050602061114d86828701610fd8565b925050604061115e8682870161100e565b9150509250925092565b60006020828403121561117e5761117d610f8a565b5b600061118c84828501610fd8565b91505092915050565b61119e81610fed565b82525050565b60006020820190506111b96000830184611195565b92915050565b600060ff82169050919050565b6111d5816111bf565b82525050565b60006020820190506111f060008301846111cc565b92915050565b6000806040838503121561120d5761120c610f8a565b5b600061121b85828601610fd8565b925050602061122c85828601610fd8565b9150509250929050565b7f42616c616e6365206973206e6f7420656e6f7567680000000000000000000000600082015250565b600061126c60158361106e565b915061127782611236565b602082019050919050565b6000602082019050818103600083015261129b8161125f565b9050919050565b7f4e487b7100000000000000000000000000000000000000000000000000000000600052602260045260246000fd5b600060028204905060018216806112e957607f821691505b6020821081036112fc576112fb6112a2565b5b50919050565b7f41646472657373206973206e6f7420616c6c6f77656400000000000000000000600082015250565b600061133860168361106e565b915061134382611302565b602082019050919050565b600060208201905081810360008301526113678161132b565b9050919050565b7f4e487b7100000000000000000000000000000000000000000000000000000000600052601160045260246000fd5b60006113a882610fed565b91506113b383610fed565b92508282039050818111156113cb576113ca61136e565b5b92915050565b60006113dc82610fed565b91506113e783610fed565b92508282019050808211156113ff576113fe61136e565b5b92915050565b7f205a65726f2061646472657373206e6f7420616c6c6f77656400000000000000600082015250565b600061143b60198361106e565b915061144682611405565b602082019050919050565b6000602082019050818103600083015261146a8161142e565b9050919050565b7f796f752063616e20636c61696d20616674657220323420686f75727300000000600082015250565b60006114a7601c8361106e565b91506114b282611471565b602082019050919050565b600060208201905081810360008301526114d68161149a565b9050919050565b60006040820190506114f26000830185611195565b6114ff6020830184611195565b9392505050565b7f596f752063616e27742074616b65206d6f7265207468616e207768617420697360008201527f206176616c6961626c6500000000000000000000000000000000000000000000602082015250565b6000611562602a8361106e565b915061156d82611506565b604082019050919050565b6000602082019050818103600083015261159181611555565b9050919050565b60006115a382610fed565b91506115ae83610fed565b92508282026115bc81610fed565b915082820484148315176115d3576115d261136e565b5b509291505056fea26469706673582212208768d203aa61b6650540438e9a4fddc529950c33f088520ff2195d88b8ed3cc264736f6c634300081b0033a264697066735822122004ca8c3ad57306a71f09e1aaf4ebe5506eef87e04f80ff5a1d2937a45ecf9adc64736f6c634300081b0033",
  "linkReferences": {},
  "deployedLinkReferences": {}
}